:1000000019C028C027C026C025C024C023C022C0D4
:1000100021C020C01FC01EC01DC01CC01BC01AC0F4
:1000200019C018C062C016C091C014C013C012C05D
:1000300011C010C011241FBECFEFD4E0DEBFCDBF72
:1000400013E0A0E0B1E001C01D92A430B107E1F7D8
:10005000D9D052C1D5CFCF93DF939C01EB01BC0126
:100060007695679580E090E06C5D7B408F4F9F4F69
:1000700040E050E01FD1215030403093C500209324
:10008000C40088ED8093C100C530D10531F02897B8
:1000900031F486E08093C20002C01092C200DF916A
:1000A000CF9108959091010120E030E0809102020B
:1000B000981711F021E030E0C901089590910202F3
:1000C000809101018917E1F30895909102028091D6
:1000D00001018917E1F3E92FF0E0EC5FFD4F80812A
:1000E0009F5F9093020290E008951F920F920FB6C7
:1000F0000F9211248F939F93EF93FF9380910101AF
:100100009091C600E4E0F2E0E80FF11D90838F5F6C
:1001100080930101FF91EF919F918F910F900FBEFE
:100120000F901F90189590910302809100018917FC
:1001300061F080910302E82FF0E0EE5FFE4F9081C6
:100140009093C6008F5F8093030208951F920F92D1
:100150000FB60F9211248F939F93EF93FF9390917B
:10016000030280910001891761F080910302E82F5A
:10017000F0E0EE5FFE4F90819093C6008F5F80931A
:100180000302FF91EF919F918F910F900FBE0F90FF
:100190001F901895582F40910001E42FF0E0319600
:1001A0009F01307031978091030290E02817390742
:1001B000D1F3EE5FFE4F5083942F9F5F9093000129
:1001C0008091C00085FF10C080910302981761F0F4
:1001D00080910302E82FF0E0EE5FFE4F9081909354
:1001E000C6008F5F809303020895CF93DF93EC01E5
:1001F00003C0219690E0CEDF88818823D1F7DF917C
:10020000CF910895BF92CF92DF92EF92FF920F931A
:100210001F93CF93DF9317B88EEF88B980EC8AB91C
:1002200080E895E268E070E016DF789440E050E006
:10023000E0E4BE2E0AEF10E073E9C72E60E4D62E8C
:1002400033EDE32E20E8F22EC4E2D4EF20E030E0DC
:1002500060E0C0927A00D0927C00E0927A008091B7
:100260007A0084FFFCCF8091780090917900280F6C
:10027000391FC8010197F1F76F5F603151F7285FAF
:100280003F4F94E0369527959A95E1F72C34310548
:1002900050F4FBB84F5F5F4F4832510538F081E0B2
:1002A00090E078DF01C0BBB840E050E0CE0101979C
:1002B000F1F7CCCFA1E21A2EAA1BBB1BFD010DC08A
:1002C000AA1FBB1FEE1FFF1FA217B307E407F50706
:1002D00020F0A21BB30BE40BF50B661F771F881FE2
:1002E000991F1A9469F760957095809590959B0178
:0C02F000AC01BD01CF010895F894FFCFD0
:00000001FF
